:020000040000FA
:1000000018F09FE518F09FE518F09FE518F09FE5C0
:1000100018F09FE50000A0E1F0FF1FE518F09FE554
:100020004000000094060000900600008C060000CE
:100030008806000000000000840600008006000022
:10004000B0009FE5AA10A0E35520A0E32430A0E370
:10005000043080E50130A0E3003080E50C1080E53D
:100060000C2080E5083090E5013B13E2FCFFFF0A1D
:100070000330A0E3003080E50C1080E50C2080E523
:1000800074009FE50410A0E3041080E50210A0E3D3
:10009000001080E564009FE5DBF021E300D0A0E1E3
:1000A000040040E2D7F021E300D0A0E1040040E2E8
:1000B000D1F021E300D0A0E1040040E2D2F021E33E
:1000C00000D0A0E1800040E2D3F021E300D0A0E125
:1000D000040040E210F021E300D0A0E120009FE501
:1000E000010010E31CE09F051CE09F1510FF2FE1AD
:1000F000FEFFFFEAFEE7C04680C01FE000C01FE031
:1001000090040040AD010000F0000000F500000088
:10011000380C060190040040A3040040A4040040F1
:10012000A6040040A8040040E504004000000000D0
:100130000000000092040040A304004080303132EF
:1001400033343536373839414243444546000000A0
:10015000B4040040E40400404C50433231333820B2
:1001600041524D204144420020204B65797061642A
:100170002044656D6F202000507265737320616E9E
:1001800079204B65792E2E00000000000000000051
:100190000020002101310A1C034B9A42FAD301309E
:1001A000011C2329F5D37047D2040000344806C847
:1001B0000B1C134305D000230B70491C9142FBD14B
:1001C000F5E73048C01C0323984306C80B1C1343B3
:1001D00006D00378401C0B70491C9142F9D1F1E71D
:1001E00000B5002128480160284801602848002106
:1001F00000F07EF9FFF7CCFFFFF7CAFF2548264C39
:10020000254A264B102100F061F820780428F1DA05
:10021000224800780428EDDA21480078802804D1AB
:100220001B480021012200F007F91D4800789028A2
:1002300002D1C0211A48017019480078CF2802DD88
:10024000802117480170144C211C02310878021CCF
:1002500001320A70021C0E48002100F0EDF8FFF791
:1002600097FF2078011C8900607809180D48405CD0
:10027000021C0748002100F00DF9BBE700BDC04695
:10028000140100003401000000C002E004C002E0DC
:10029000008002E0108002E09004004091040040E1
:1002A00092040040930400400020002101310A1C08
:1002B000044B9A42FAD30130011C034A9142F4D311
:1002C0007047C046D00700002C010000F0B51C1C90
:1002D000171C0D1C061CFFF75BFF281C0006000EF8
:1002E0000F218140301C8160281C0006000EF02187
:1002F0008140301C0160301C0168281C0006000E83
:10030000C140F029F7D00906090E31480170304884
:100310000078E02803D10023391C0B7018E0D028A6
:1003200003D10121381C017012E029480078B0285F
:1003300003D10221381C01700AE02548007870289A
:1003400003D10321381C017002E00421381C017024
:10035000FFF71EFFFFF71CFF281C0006000EF02110
:100360008140301C8160281C0006000E0F21814056
:10037000301C0160301C0168281C0006000EC140C2
:100380000F29F7D00906090E1248017011480078AC
:100390000E2803D10022211C0A7014E00D2803D17D
:1003A0000122211C0A700EE00B2803D10222211C1D
:1003B0000A7008E0072803D10321201C017002E025
:1003C0000421201C0170FFF76FFFFFF76DFFF0BDE8
:1003D000A4040040A504004030B5051C00240B48CF
:1003E0000178081CFF228240281CC260221C084899
:1003F000805C021C281C00F01FF80F2000F00AF897
:100400000134201C0428EADB30BDC046E40400406F
:100410001001000010B4002106E000220132131C7C
:10042000044CA342FADB01310A1C031C9A42F4D3A8
:1004300010BC70470027000000B5031C081C000614
:10044000000E111C0906090E8140181C01600C4A9F
:100450000C480168114301600B4A0A4801681143C6
:1004600001600A4A0A480168114301600F20FFF742
:10047000D1FF064A034801681143016000BDC04630
:10048000001000000C8002E000200000004000008E
:10049000048002E000B5031C081C0006000E111CBD
:1004A0000906090E8140181C01600C4A0C480168BD
:1004B000114301600B4A0C480168114301600B4A6B
:1004C00007480168114301600F20FFF7A3FF074AA7
:1004D000054801681143016000BDC04600100000DE
:1004E000048002E0002000000C8002E000400000D8
:1004F00010B50A1C041C111C11480170104800782A
:10050000FF228240201C81681143201C8160201C36
:1005100081680C480143201C81600A20FFF77AFFA4
:10052000201CFFF759FF0A20FFF774FF04480078EA
:10053000011C201C00F008F80A20FFF76BFF10BD1B
:10054000E40400400070000070B50E1C051C301C57
:100550000006000EFF218140281CC160301C0106EE
:10056000090E281C8022FFF767FF0F20FFF752FFBC
:10057000002415E0301C0006000EFF218140281CDD
:10058000C160201C0106090E3A48405C021C301C68
:100590000106090E281CFFF77DFF01342406240EF6
:1005A000201C0106090E3348405C0028E2D10F20D0
:1005B000FFF730FF301C0006000EFF218140281C91
:1005C000C160301C0106090E281CC022FFF734FF51
:1005D0000F20FFF71FFF002415E0301C0006000E5F
:1005E000FF218140281CC160201C0106090E224801
:1005F000405C021C301C0106090E281CFFF74AFF54
:1006000001342406240E201C0106090E1A48405C01
:100610000028E2D10F20FFF7FDFEFFF745FEFFF7B0
:1006200043FE301C0106090E281CC022FFF704FF00
:10063000FFF73AFE002415E0301C0006000EFF21F3
:100640008140281CC160201C0106090E0B48405C3B
:10065000021C301C0106090E281CFFF71BFF013489
:100660002406240E201C0106090E0448405C0028C4
:10067000E2D170BDB4040040C4040040D404004082
:10068000FEFFFFEAFEFFFFEAFEFFFFEAFEFFFFEAD2
:08069000FEFFFFEAFEFFFFEA96
:00000001FF
